{
  "contractName": "Math",
  "abi": [
    {
      "constant": true,
      "inputs": [
        {
          "internalType": "uint256",
          "name": "a",
          "type": "uint256"
        },
        {
          "internalType": "uint256",
          "name": "b",
          "type": "uint256"
        }
      ],
      "name": "addFunc",
      "outputs": [
        {
          "internalType": "uint256",
          "name": "",
          "type": "uint256"
        }
      ],
      "payable": false,
      "stateMutability": "pure",
      "type": "function"
    }
  ],
  "bytecode": "0x608060405234801561001057600080fd5b5060b88061001f6000396000f3fe6080604052348015600f57600080fd5b506004361060285760003560e01c8063d82cf74914602d575b600080fd5b606060048036036040811015604157600080fd5b8101908080359060200190929190803590602001909291905050506076565b6040518082815260200191505060405180910390f35b600081830190509291505056fea265627a7a7231582092a4cc2f4fd37cff1ac0edfcd841ebbb064e9f9838372e3178d520cdddd43b0464736f6c63430005100032",
  "source": "pragma solidity ^0.5.0;\n\n// 声明合约\ncontract Math {\n\n    // 结构体类型\n\tstruct Vouter {\n\t\tuint weight;\n\t\tbool voted;\n\t}\n\n\tfunction addFunc (uint a, uint b) pure public returns (uint) {\n\t\treturn a+b;\n\t}\n}",
  "sourcePath": "/Users/hxw/MetaMask/workspace/solidity-dapp/contracts/Math.sol",
  "compiler": {
    "name": "solc",
    "version": "0.5.16+commit.9c3226ce.Emscripten.clang"
  },
  "schemaVersion": "3.3.2",
  "updatedAt": "2020-12-04T08:53:36.473Z",
  "networkType": "ethereum",
  "devdoc": {
    "methods": {}
  },
  "userdoc": {
    "methods": {}
  }
}