{
  "contractName": "MovieBallot",
  "abi": [
    {
      "inputs": [],
      "payable": false,
      "stateMutability": "nonpayable",
      "type": "constructor"
    },
    {
      "constant": true,
      "inputs": [
        {
          "internalType": "uint256",
          "name": "",
          "type": "uint256"
        }
      ],
      "name": "candidates",
      "outputs": [
        {
          "internalType": "string",
          "name": "name",
          "type": "string"
        },
        {
          "internalType": "uint256",
          "name": "votecount",
          "type": "uint256"
        }
      ],
      "payable": false,
      "stateMutability": "view",
      "type": "function"
    },
    {
      "constant": true,
      "inputs": [
        {
          "internalType": "address",
          "name": "",
          "type": "address"
        }
      ],
      "name": "voters",
      "outputs": [
        {
          "internalType": "bool",
          "name": "voted",
          "type": "bool"
        }
      ],
      "payable": false,
      "stateMutability": "view",
      "type": "function"
    },
    {
      "constant": false,
      "inputs": [
        {
          "internalType": "uint8",
          "name": "index",
          "type": "uint8"
        }
      ],
      "name": "voteCandidate",
      "outputs": [],
      "payable": false,
      "stateMutability": "nonpayable",
      "type": "function"
    },
    {
      "constant": true,
      "inputs": [],
      "name": "isVoted",
      "outputs": [
        {
          "internalType": "bool",
          "name": "",
          "type": "bool"
        }
      ],
      "payable": false,
      "stateMutability": "view",
      "type": "function"
    },
    {
      "constant": true,
      "inputs": [
        {
          "internalType": "uint8",
          "name": "index",
          "type": "uint8"
        }
      ],
      "name": "getCondidate",
      "outputs": [
        {
          "internalType": "string",
          "name": "",
          "type": "string"
        }
      ],
      "payable": false,
      "stateMutability": "view",
      "type": "function"
    },
    {
      "constant": true,
      "inputs": [
        {
          "internalType": "uint8",
          "name": "index",
          "type": "uint8"
        }
      ],
      "name": "getCount",
      "outputs": [
        {
          "internalType": "uint256",
          "name": "",
          "type": "uint256"
        }
      ],
      "payable": false,
      "stateMutability": "view",
      "type": "function"
    }
  ],
  "bytecode": "0x608060405234801561001057600080fd5b50600060405180604001604052806040518060400160405280600881526020017f6861692077616e67000000000000000000000000000000000000000000000000815250815260200160008152509080600181540180825580915050906001820390600052602060002090600202016000909192909190915060008201518160000190805190602001906100a592919061029e565b5060208201518160010155505050600060405180604001604052806040518060400160405280600881526020017f6c6f6e67206d616f0000000000000000000000000000000000000000000000008152508152602001600081525090806001815401808255809150509060018203906000526020600020906002020160009091929091909150600082015181600001908051906020019061014792919061029e565b5060208201518160010155505050600060405180604001604052806040518060400160405280600581526020017f6475207965000000000000000000000000000000000000000000000000000000815250815260200160008152509080600181540180825580915050906001820390600052602060002090600202016000909192909190915060008201518160000190805190602001906101e992919061029e565b5060208201518160010155505050600060405180604001604052806040518060400160405280601081526020017f77616e67206c756f206d69207a6f6e67000000000000000000000000000000008152508152602001600081525090806001815401808255809150509060018203906000526020600020906002020160009091929091909150600082015181600001908051906020019061028b92919061029e565b5060208201518160010155505050610343565b828054600181600116156101000203166002900490600052602060002090601f016020900481019282601f106102df57805160ff191683800117855561030d565b8280016001018555821561030d579182015b8281111561030c5782518255916020019190600101906102f1565b5b50905061031a919061031e565b5090565b61034091905b8082111561033c576000816000905550600101610324565b5090565b90565b610670806103526000396000f3fe608060405234801561001057600080fd5b50600436106100625760003560e01c80633477ee2e146100675780637b5bc2e414610115578063a3ec138d14610137578063a819dfbb14610193578063acfa2893146101d8578063f257114714610209575b600080fd5b6100936004803603602081101561007d57600080fd5b81019080803590602001909291905050506102b3565b6040518080602001838152602001828103825284818151815260200191508051906020019080838360005b838110156100d95780820151818401526020810190506100be565b50505050905090810190601f1680156101065780820380516001836020036101000a031916815260200191505b50935050505060405180910390f35b61011d61037c565b604051808215151515815260200191505060405180910390f35b6101796004803603602081101561014d57600080fd5b81019080803573ffffffffffffffffffffffffffffffffffffffff1690602001909291905050506103d3565b604051808215151515815260200191505060405180910390f35b6101c2600480360360208110156101a957600080fd5b81019080803560ff1690602001909291905050506103fe565b6040518082815260200191505060405180910390f35b610207600480360360208110156101ee57600080fd5b81019080803560ff169060200190929190505050610428565b005b6102386004803603602081101561021f57600080fd5b81019080803560ff169060200190929190505050610578565b6040518080602001828103825283818151815260200191508051906020019080838360005b8381101561027857808201518184015260208101905061025d565b50505050905090810190601f1680156102a55780820380516001836020036101000a031916815260200191505b509250505060405180910390f35b600081815481106102c057fe5b9060005260206000209060020201600091509050806000018054600181600116156101000203166002900480601f01602080910402602001604051908101604052809291908181526020018280546001816001161561010002031660029004801561036c5780601f106103415761010080835404028352916020019161036c565b820191906000526020600020905b81548152906001019060200180831161034f57829003601f168201915b5050505050908060010154905082565b6000600160003373ffffffffffffffffffffffffffffffffffffffff1673ffffffffffffffffffffffffffffffffffffffff16815260200190815260200160002060000160009054906101000a900460ff16905090565b60016020528060005260406000206000915090508060000160009054906101000a900460ff16905081565b6000808260ff168154811061040f57fe5b9060005260206000209060020201600101549050919050565b600160003373ffffffffffffffffffffffffffffffffffffffff1673ffffffffffffffffffffffffffffffffffffffff16815260200190815260200160002060000160009054906101000a900460ff16156104eb576040517f08c379a000000000000000000000000000000000000000000000000000000000815260040180806020018281038252600b8152602001807f6861766520766f7465642100000000000000000000000000000000000000000081525060200191505060405180910390fd5b600160008260ff16815481106104fd57fe5b90600052602060002090600202016001016000828254019250508190555060018060003373ffffffffffffffffffffffffffffffffffffffff1673ffffffffffffffffffffffffffffffffffffffff16815260200190815260200160002060000160006101000a81548160ff02191690831515021790555050565b606060008260ff168154811061058a57fe5b90600052602060002090600202016000018054600181600116156101000203166002900480601f01602080910402602001604051908101604052809291908181526020018280546001816001161561010002031660029004801561062f5780601f106106045761010080835404028352916020019161062f565b820191906000526020600020905b81548152906001019060200180831161061257829003601f168201915b5050505050905091905056fea265627a7a72315820bde3945fbd510df0424a2d068c8444a2a005dd358fa3e04607bb73849ca1747164736f6c63430005100032",
  "source": "// SPDX-License-Identifier: MIT\npragma solidity ^0.5;\n\ncontract MovieBallot {\n    \n    struct Candidate {\n        string name;\n        uint votecount;\n    }\n    \n    struct Voter {\n        bool voted;\n    }\n    \n    Candidate[] public candidates;\n    mapping(address => Voter) public voters;\n    \n    constructor() public {\n        candidates.push(Candidate({\n            name : \"hai wang\",\n            votecount : 0\n        }));\n        candidates.push(Candidate({\n            name : \"long mao\",\n            votecount : 0\n        }));\n        candidates.push(Candidate({\n            name : \"du ye\",\n            votecount : 0\n        }));\n        candidates.push(Candidate({\n            name : \"wang luo mi zong\",\n            votecount : 0\n        }));\n    }\n    \n    function voteCandidate(uint8 index) public {\n        // if (voters[msg.sender].voted) {\n        //     return;\n        // } else {\n        //     candidates[index].votecount +=1;\n        //     voters[msg.sender].voted = true;\n        // }\n        \n        require(!voters[msg.sender].voted, \"have voted!\");\n        candidates[index].votecount +=1;\n        voters[msg.sender].voted = true;\n    }\n    \n    function isVoted () public view returns (bool) {\n        return voters[msg.sender].voted;\n    }\n    \n    function getCondidate (uint8 index) public view returns (string memory) {\n        return candidates[index].name;\n    }\n    \n    function getCount(uint8 index) public view returns (uint) {\n        return candidates[index].votecount;\n    }  \n    \n}",
  "sourcePath": "/Users/hxw/MetaMask/workspace/solidity-dapp/contracts/MovieBallot.sol",
  "compiler": {
    "name": "solc",
    "version": "0.5.16+commit.9c3226ce.Emscripten.clang"
  },
  "schemaVersion": "3.3.2",
  "updatedAt": "2020-12-04T08:53:36.476Z",
  "networkType": "ethereum",
  "devdoc": {
    "methods": {}
  },
  "userdoc": {
    "methods": {}
  }
}